S01500005A3830636F6E74726F6C6C65722E7372656309
S113000057C00000C0C200006FC000006DC00000F7
S11300106BC0000069C0000067C0000065C000003C
S113002063C0000061C000005FC000005DC000004C
S11300305BC0000059C0000057C000000C94191C9C
S113004053C0000051C000004FC000004DC000006C
S11300504BC0000049C0000047C0000045C000007C
S113006043C0000041C000003FC000003DC000008C
S11300701F0000000000001F1F0010181810001FB0
S11300801F00181C1C18001F1F001C1E1E1C001F14
S11300901F001E1F1F1E001F1F001F1F1F1F001FEA
S11300A00304091313090403180412191912041878
S11300B011241FBECFEFD0E1DEBFCDBF14E0A0E01E
S11300C0B1E0E2E8F0E502C005900D92AA32B10772
S11300D0D9F72EE0AAE2B4E001C01D92A83FB2070E
S11300E0E1F7EAD50C943F288BCF282F88B188B943
S11300F0289A922F92959F70822F8F7090FF24C020
S1130100449A969590FF24C0459A969590FF24C0F2
S1130110469A969521F1479A2B9A2B9820FF24C052
S1130120449A869580FF24C0459A869580FF24C012
S1130130469A869521F547982B9A2B98289885ED11
S11301408A95F1F7000008954498969590FDDCCFC8
S11301504598969590FDDCCF46989695E1F647989C
S11301602B9A2B9820FDDCCF4498869580FDDCCF1C
S11301704598869580FDDCCF46988695E1F2479AAE
S11301802B9A2B98289885ED8A95F1F7000008950D
S1130190282F88B188B9922F92959F70822F8F70E3
S11301A090FF23C0449A969590FF23C0459A969554
S11301B090FF23C0469A969519F1479A2B9A2B984B
S11301C020FF23C0449A869580FF23C0459A8695D4
S11301D080FF23C0469A869519F547982B9A2B9849
S11301E085ED8A95F1F7000008954498969590FD61
S11301F0DDCF4598969590FDDDCF46989695E9F626
S113020047982B9A2B9820FDDDCF4498869580FD46
S1130210DDCF4598869580FDDDCF46988695E9F239
S1130220479A2B9A2B9885ED8A95F1F7000008954B
S1130230CF92DF92EF92FF920F931F93CF93DF93AE
S11302408FE59AEE0197F1F700C0000018B815B8D1
S113025087B1806F87B984B18B6084B980E388B932
S11302602B9AEFE9FFE03197F1F700C000002B98DB
S1130270EFE9FFE03197F1F700C0000088B92B9A4D
S11302808FE99FE00197F1F700C000002B98EFE998
S1130290FFE03197F1F700C0000080E288B92B9AA3
S11302A08FE99FE00197F1F700C000002B98EFE978
S11302B0FFE03197F1F700C0000088E269DF8CE0CD
S11302C067DF50E7E52E50E0F52E00E010E0C801AE
S11302D0880F991F880F991F880F991F382F306432
S11302E048E0C42EC30EE70128C0449A969590FFB7
S11302F036C0459A969590FF36C0469A9695B1F1C8
S1130300479A2B9A2B9830FF36C0449A922F969591
S113031090FF36C0459A969590FF36C0469A9695BA
S1130320B1F547982B9A2B98F5EDFA95F1F7000063
S1130330DCDE21963D2DDC1461F1FE018491DD2487
S1130340D394D30E98B198B9932F92959F70232F7D
S11303502F7090FDCACF4498969590FDCACF4598CA
S1130360969590FDCACF4698969551F647982B9A44
S11303702B9830FDCACF4498922F969590FDCACF02
S11303804598969590FDCACF4698969551F2479A0E
S1130390C9CF0F5F1F4F88E0E80EF11C083011052C
S11303A009F095CFDF91CF911F910F91FF90EF90BE
S11303B0DF90CF90089588B188B9449845984698BD
S11303C047982B9A2B98449A4598469847982B9A85
S11303D02B9885ED8A95F1F7000087B18F7087B966
S11303E088B1806F88B9299A2B9A95ED9A95F1F77F
S11303F0000086B12B9895ED9A95F1F700002B9AA1
S113040095ED9A95F1F700002B9895ED9A95F1F7F3
S1130410000087FDE9CF299888B118B887B1806FAB
S113042087B90895282F623009F454C0633009F461
S11304304FC0613009F44AC088B188B9922F9068DE
S113044092959F70822F8F7090FF20C0449A96954A
S113045090FF20C0459A91FF20C0469A479A2B9A54
S11304602B9820FF20C0449A869580FF20C0459A8F
S1130470869580FF20C0469A869501F547982B9A69
S11304802B9885ED8A95F1F7000008954498969588
S113049090FDE0CF459891FDE0CF4698479A2B9A7E
S11304A02B9820FDE0CF4498869580FDE0CF4598B9
S11304B0869580FDE0CF4698869501F3479A2B9A5E
S11304C02B9885ED8A95F1F700000895205CB4CF50
S11304D02C5AB2CF2C5EB0CFFC013081332309F407
S11304E051C0319627C0449A969590FF31C0459AE1
S11304F0969590FF31C0469A969589F1479A2B9A22
S11305002B9830FF31C0449A922F969590FF31C0BA
S1130510459A969590FF31C0469A969589F54798E5
S11305202B9A2B98289885ED8A95F1F70000319144
S1130530332341F188B188B9289A932F92959F70FB
S1130540232F2F7090FDCFCF4498969590FDCFCF59
S11305504598969590FDCFCF4698969579F647980D
S11305602B9A2B9830FDCFCF4498922F969590FDDF
S1130570CFCF4598969590FDCFCF4698969579F232
S1130580479ACECF08951F920F920FB60F9211245F
S11305908F939F93EF93FF934E991AC04B9B2BC05D
S11305A082B190913C04907C8F73892B82B981B184
S11305B0806C81B9589A4A9BFECF11B85898FF9124
S11305C0EF919F918F910F900FBE0F901F901895F0
S11305D04F992DC04B9927C080B1E9B1E295E370E2
S11305E0E9F1E33071F1F0E0E851F14F8083589A7A
S11305F04A9BFECFE3CFE9B1E295E370E1F0E3304B
S113060051F48091E80E8D7F8093E80E80913C0434
S11306108F7B80933C04F0E0E851F14F808182B9F4
S11306208FEF81B9C7CF80B180932A04E0CF589A65
S11306304A9BFECFC3CF80913C048F7780933C04C8
S1130640EACF9091E80E9D7F9093E80E90913C0440
S11306509F7B90933C04E3E0F0E0C6CF91E090935D
S11306603A04E4E0F0E0C0CF8F929F92AF92BF9241
S1130670CF92DF92EF92FF920F931F93CF93DF936A
S113068093B181E0292F247092FF80E08093900C35
S113069090910301891721F080930301222341F1F2
S11306A0339B24C0C2E086B182FB882780F9C82B23
S11306B080913204C81769F090913104923009F4A2
S11306C097C0933009F469C0913009F401C1C09313
S11306D03204DF91CF911F910F91FF90EF90DF9043
S11306E0CF90BF90AF909F908F900895C0E0DBCFE4
S11306F080913104813009F4A6C108F471C18230BB
S113070009F41EC1833061F656DE61E070E080E0DA
S113071090E088DE8091000190E0805C9F4F9F9381
S11307208F93C1E9DCE0DF93CF938CEC91E09F934E
S11307308F9386E694E09F938F930E94672586E6C5
S113074094E0CADE81E090E090930201809301017D
S11307501092310460E070E080E090E063DE8DB7D9
S11307609EB708960FB6F8949EBF0FBE8DBF8091BA
S113077030048111EDC18AED91E0AEDE2FEF83EDFF
S113078090E3215080409040E1F700C00000809148
S11307902A0483700E94681C83CF90E0880F991FFD
S11307A0880F991F8C2B8430910509F400C10CF437
S11307B0CBC18B30910509F4FAC00E9709F087CFAD
S11307C08091010190910201181619060CF07FCF57
S11307D0019790930201809301011092300461E02B
S11307E070E080E090E01EDE8BEB91E075DE6FCF71
S11307F090E0880F991F880F991F8C2B84309105E6
S113080009F4C3C00CF49CC18B30910509F4BDC03C
S11308100E9709F05CCF8091010190910201823022
S113082091050CF454CF0197909302018093010138
S113083080912E0490912F04892B09F448CF61E014
S113084070E080E090E0EEDD84EA91E045DE61E076
S113085070E08FE090E0E6DD84E891E03DDE61E069
S113086070E082E090E0DEDD86EA91E035DE61E072
S113087070E082E090E0D6DD6091010170910201A8
S1130880660F771F660F771F660F771F6E587B4FB3
S113089048E050E086E694E00E94FB2486E694E07B
S11308A010926E049F938F938DE391E09F938F93A7
S11308B081E99CE09F938F930E94672581E99CE0E6
S11308C00BDE0F900F900F900F900F900F90FFCEB4
S11308D090E0880F991F880F991F8C2B8430910505
S11308E009F449C00CF428C18B30910509F443C0C4
S11308F00E9709F0ECCE8091010190910201181637
S113090019060CF0E4CE0197909302018093010143
S11309108093000161E070E080E090E083DD8091ED
S11309200001811133C181E1EBEBF1E0A1E9BCE00D
S113093001900D928A95E1F781E99CE0CDDDC7CE67
S11309403ADD60E070E080E090E06CDD84EB91E003
S1130950C3DD109202011092010183E080933104FF
S11309601092300461E070E080E090E05BDD8BEB9E
S113097091E0B2DD95CE8091010190910201833026
S113098091050CF0A4CE0196BFCF80910101909106
S1130990020120912E0430912F048217930708F04E
S11309A096CE0196909302018093010148CF8091E5
S11309B0010190910201181619060CF488CE0196D3
S11309C0909302018093010181E08093300461E0FF
S11309D070E080E090E026DD86EE91E07DDD77CE6C
S11309E0EADC60E070E080E090E01CDD86E691E007
S11309F073DD81E090E09093020180930101809384
S1130A0031048093000161E070E080E090E00ADD51
S1130A108091000190E0805C9F4F9F938F9384E7C7
S1130A2091E09F938F9381E99CE09F938F930E9421
S1130A30672581E99CE050DD0F900F900F900F9097
S1130A400F900F902DCE80910001882309F496C059
S1130A5082E08093310481E090E0909302018093DE
S1130A600101A9DC60E070E080E090E0DBDC86E876
S1130A7091E032DD6BE371E085EA9CE00E94641250
S1130A808093B50C811111C110922F0410922E0481
S1130A903BC067E873E083E89CE00E940A25892B49
S1130AA009F445C048E050E063E87CE081E99CE05B
S1130AB00E94FB246EE270E081E99CE00E94DB244A
S1130AC0009711F0FC01108280912E0490912F0464
S1130AD06C01FFEFCF1ADF0AD0922F04C0922E04CC
S1130AE0880F991F880F991F880F991F48E050E0BD
S1130AF061E97CE086589B4F0E94FB242FEFC216CD
S1130B00D10411F008F05FC06AE77CE085EA9CE05C
S1130B100E946F138093B50C81114EC08091830C99
S1130B20882309F449C08091820C84FFB2CFC0901D
S1130B302E04D0902F04E2CF019709F4DCCEC7CD68
S1130B40019709F468CEC3CD019709F439CEBFCD1E
S1130B5082ED91E0C1DC80910001815080932D04ED
S1130B60D0932C04C0932B040E947F1F9FEFE3EDCE
S1130B70F0E39150E040F040E1F707CE10923104E9
S1130B8080912A0483700E94681C8ACD90E0805C66
S1130B909F4F9F938F9384E791E09F938F9381E975
S1130BA09CE09F938F930E9467250F900F900F9066
S1130BB00F900F900F90C0CEC0902E04D0902F04B1
S1130BC0C114D104D1F1760181E0E81AF108A12C15
S1130BD0B12CFAE78F2EF4E09F2E00E010E00E1502
S1130BE01F0528F50F5F1F4FE401289648E050E0E9
S1130BF0BE01C4010E94ED2418161906A4F448E0AD
S1130C0050E0B40181E99CE00E94FB2448E050E0FC
S1130C10BE01C4010E94FB2448E050E061E97CE08D
S1130C20CE010E94FB244E010E151F05D8F29FEF42
S1130C30A91AB90ACA14DB0461F661E070E080E025
S1130C4090E0F0DB84EA91E047DC61E070E08FE063
S1130C5090E0E8DB84E891E03FDC61E070E082E072
S1130C6090E0E0DB86EA91E037DC61E070E082E06E
S1130C7090E0D8DB6091010170910201660F771F4B
S1130C80660F771F660F771F6E587B4F48E050E062
S1130C9086E694E00E94FB2486E694E010926E04BB
S1130CA09F938F938DE391E0BCCE682F70E083E92E
S1130CB091E00E943F1CC1CFC1E0CAB98FEF82B955
S1130CC0239885B987B1837F87B988B18C6088B947
S1130CD0F894AEDA0E94551682E080938100C093A6
S1130CE06F005898CDBB78940E942B24BDDCFCCFB8
S1130CF0CF92DF92EF92FF92CF93C82F6A017B01CC
S1130D008091350481114CC083E58CBD1DBCC7FDA9
S1130D104DC02C9A8FEF8EBD0DB407FEFDCF8EB55E
S1130D202C988FEF8EBD0DB407FEFDCF8EB5CEBDD2
S1130D300DB407FEFDCF8F2D9927AA27BB278EBDA3
S1130D400DB407FEFDCFC701AA27BB278EBD0DB486
S1130D5007FEFDCFBB27AF2D9E2D8D2D8EBD0DB46F
S1130D6007FEFDCFCEBC0DB407FEFDCFC03449F164
S1130D70C83429F181E08EBD0DB407FEFDCF9AE0A1
S1130D802FEF2EBD0DB407FEFDCF8EB587FF02C039
S1130D909150B9F7CF91FF90EF90DF90CF900895E5
S1130DA080E58CBD81E08DBDC7FFB3CF40E050E04E
S1130DB0BA0187E79DDF823068F7CF77AACF87E84B
S1130DC0DACF85E9D8CFAF92BF92CF92DF92EF927C
S1130DD0FF920F931F93CF93DF9300D000D0CDB732
S1130DE0DEB780913504882311F02C9B34C02C9AF3
S1130DF0249A259A279A249A83E58CBD1DBC2C9AA3
S1130E008AE09FEF9EBD0DB407FEFDCF2EB5815045
S1130E10C9F740E050E0BA0180E46ADF813009F4A8
S1130E2039C081E0F12CF09235042C9A9FEF9EBDDD
S1130E300DB407FEFDCF9EB50F900F900F900F904D
S1130E40DF91CF911F910F91FF90EF90DF90CF90A2
S1130E50BF90AF900895809133049091340402962A
S1130E60019730F01EBC0DB407FEFDCF0197D0F7FB
S1130E708FEF8EBD0DB407FEFDCF8EB58F7185301B
S1130E8009F48AC02C9A8FEF8EBD0DB407FEFDCFF6
S1130E908EB5ADCF4AEA51E060E070E088E428DF27
S1130EA0813009F04FC08E010F5F1F4F7E0185E036
S1130EB0E80EF11CF8019FEF9EBD0DB407FEFDCFB7
S1130EC08EB58193EE16FF06B9F78B81813009F058
S1130ED0A8CF8C818A3A09F0A4CF70E1C72E77E2BB
S1130EE0D72EE0E9AE2EBB24B39408C0C501019708
S1130EF0F1F7E1E0CE1AD10809F493CF40E050E0D5
S1130F0060E070E489EEF4DE8111F0CF40E050E05F
S1130F10BA018AE7EDDE811184CF8FEF8EBD0DB467
S1130F2007FEFDCF9EB5F80191938F01EE16FF06E3
S1130F30A9F79981892F807496FF47C080E06CE0FF
S1130F40F62E71CF40E050E0BA0189EED1DE823056
S1130F5008F436C0FF24F39431E4E32E00E117E2F1
S1130F6020E9C22EDD24D39407C0C6010197F1F70E
S1130F700150110909F455CF40E050E0BA018E2D1B
S1130F80B7DE8111F2CF40E052E060E070E080E52E
S1130F90AFDE811146CF47CF89E893E13FEF40E9C7
S1130FA051E03EBD0DB407FEFDCF2EB52F3F09F431
S1130FB069CF019709F466CFFA013197F1F7F1CFC0
S1130FC042E0F42E59EEE52EC9CF94E0F92E2BCF52
S1130FD0EF92FF920F931F93CF93DF93EC0179016C
S1130FE08091350483FD07C089E0440F551F661FB7
S1130FF0771F8A95D1F781E57BDE81110CC080E4EF
S11310009CE93FEF3EBD0DB407FEFDCF2EB52F3F4B
S113101089F40197B9F781E02C9A9FEF9EBD0DB436
S113102007FEFDCF9EB5DF91CF911F910F91FF90E9
S1131030EF9008952E3F79F782E092E0801B910BA8
S11310408E199F09970121503109EF2849F04FEF7C
S11310504EBD0DB407FEFDCF5EB521503109C0F77A
S11310602097B9F0FE010C0F1D1F3FEF3EBD0DB4DC
S113107007FEFDCF2EB521930E171F07B9F72FEFEB
S11310802EBD0DB407FEFDCF3EB50197C9F780E034
S1131090C3CF2FEF2EBD0DB407FEFDCF3EB50150DB
S11310A01109C1F72FEFECCF009701F1411551055C
S11310B0D9F02091330430913404232BA9F0FC019E
S11310C081918EBD0DB407FEFDCF20913304309184
S11310D034042150310930933404209333044150B3
S11310E0510911F0232B61F780E008954115510552
S11310F061057105C9F08091350483FF33C088E52B
S1131100F7DD81114CC08FEF8EBD0DB407FEFDCF0E
S11311108EEF8EBD0DB407FEFDCF80E092E090937C
S1131120340480933304E0CF8091330490913404E9
S11311300296019728F01EBC0DB407FEFDCFF9CF2F
S11311408FEF8EBD0DB407FEFDCF8EB58F71853048
S113115089F081E02C9A9FEF9EBD0DB407FEFDCF70
S11311609EB5089589E0440F551F661F771F8A9521
S1131170D1F7C5CF28E833E16FEF40E951E06EBD08
S11311800DB407FEFDCF8EB58F3F59F02115310503
S113119001F3CA010197F1F721503109F0CF81E041
S11311A0089581E0232BB1F280E0D4CF4F925F9277
S11311B06F927F928F929F92AF92BF92EF92FF9223
S11311C00F931F93CF93DF9300D000D0CDB7DEB73A
S11311D06230710581059105C8F0E0903604F09005
S11311E03704F70186809780A084B1846815790557
S11311F08A059B0558F44B015C018081823009F417
S113120072C0833009F445C08130B9F061E070E008
S113121080E090E00F900F900F900F90DF91CF91AE
S11312201F910F91FF90EF90BF90AF909F908F9080
S11312307F906F905F904F90089524015694479447
S1131240480C591C92013170452C552446942F3F6B
S1131250F1E03F0709F468C0F701428553856485CE
S11312607585440D551D611D711D02E010E0CE0110
S11312700196AEDE8111CACF69817A8180FE50C0A9
S1131280729562956F7067277F70672780E090E0A2
S1131290C1CF94012F773327220F331F220F331F1F
S11312A0D501C40147E0B695A795979587954A95CA
S11312B0D1F7F70182849384A484B584AC01BD0181
S11312C0480D591D6A1D7B1D04E010E0CE010196F6
S11312D07FDE81119BCF89819A81AB81BC81BC0166
S11312E0CD019F7097CF94013327220F331F7727A7
S11312F06B2D5A2D492DF70182859385A485B585DB
S1131300480F591F6A1F7B1F02E010E0CE010196AF
S11313105FDE81117BCF69817A8180E090E07ACFB2
S11313207F7080E090E076CF612C712CF7014285CC
S1131330538564857585440D551D661D771D01E033
S113134010E02FEF31E0CE01019642DE81115ECF35
S1131350F70142855385648575854F5F5F4F6F4FF5
S11313607F4F440D551D661D771D20E030E0CE01F2
S113137002962EDE882309F47FCF48CF4F925F92E6
S11313806F927F929F92AF92BF92CF92DF92EF9231
S1131390FF920F931F93CF93DF936C017B015A014C
S11313A0DA018C91803231F4FA0131965F01819136
S11313B08032E1F38F3209F4E9C1E6011C821D8217
S11313C01E821F82F5018081803208F4E3C10091FE
S11313D0360410913704E601EA81FB81A0E29A2EDB
S11313E0908291829282938294829582968297824D
S11313F090869186928690E080E038E021E0280F84
S1131400D501A80FB11DAC91A13208F47CC1AF3253
S1131410A1F0AE3209F426C1931778F4A7FD58C1A0
S11314208FE98A0F8A3108F4A052AF01490F511D88
S1131430EA01A8839F5F822FE1CF80E0A20EB11C56
S11314408387F6011182108284819581A681B781F8
S113145081309105A105B10509F402C1E8014E806E
S11314605F806884798484159505A605B70508F01E
S1131470F7C00097A105B10509F006C18881833042
S113148009F42FC1F60110861186128613864E8543
S11314905F8568897989F6014487558766877787E8
S11314A020E030E02F703327220F331F229532952E
S11314B0307F3227207F322700E210E0C70188DD29
S11314C08111CEC0D7018C91882309F44FC01B969B
S11314D04C911B9743FD45C0E601EA81FB812081C5
S11314E030E090E028173907E1F511969C911197A7
S11314F08181981336C012969C9112978281981319
S113150030C013969C911397838198132AC0149624
S11315109C9114978481981324C015969C911597D7
S1131520858198131EC016969C91169786819813F0
S113153018C017969C9117978781981312C0189614
S11315409C911897808598130CC019969C911997B3
S11315508185981306C01A969C918285981709F480
S113156044C0F601C081D181219689F483E0DF91E2
S1131570CF911F910F91FF90EF90DF90CF90BF908C
S1131580AF909F907F906F905F904F9008954485A7
S1131590558566857785411551056105710531F3DA
S11315A0CE018F709927892BD9F4009136041091BC
S11315B037044F5F5F4F6F4F7F4F44875587668770
S11315C07787408451846284738441145104610494
S11315D0710459F5F80184819581C817D90730F64B
S11315E0D601CD93DC939E015DCF83858111F4C038
S11315F044FFBCCF2091360430913704E90188813F
S11316008330B9F140E050E0BA01E7018A8D9B8D47
S1131610A0E0B0E0842B952BA62BB72BE6018C839E
S11316209D83AE83BF838901DBCED80112968C9152
S113163090E09C0121503109CE01929582958F70E2
S113164089279F70892782239323892B49F6C30115
S1131650B201ACDD623071058105910508F055C019
S113166081E085CF383009F0E8CE98E03BE0822F66
S1131670C5CED70154968D919C915597A0E0B0E0CA
S1131680BC0155274427C1CF80879187A287B387A0
S11316909C01AD012250310941095109F2E04F1A70
S11316A05108610871082415350546055705A8F445
S11316B0E801AA81B0E00E94B0240A891B892C8920
S11316C03D89AB01BC01400F511F621F731FE3CE64
S11316D0B0E0A958BE4FAC91A3CE40E050E0BA01AF
S11316E0DACE4E855F8568897989DB01CA01F60106
S11316F040875187628773874115510561057105DC
S113170009F4C9CEC5CF81E099CEF80106811781CD
S113171020853185601771078207930708F026CF6B
S1131720D60118966D937D938D939C931B97E091AE
S11317303604F09137049B01AC0122503109410970
S1131740510986819781A085B1850297A109B109C4
S1131750281739074A075B0708F042C0A281B0E0A6
S11317600E94B0240289138924893589AB01BC0104
S1131770400F511F621F731FF60144875587668708
S11317807787D601CD93DC939E018CCEBFEFAB1A45
S1131790BB0A13CEE0913604F09137041982188203
S11317A086819781A085B1850097A105B105B1F027
S11317B020812330C9F0188619861A861B868685EF
S11317C09785A089B189F60184879587A687B7870D
S11317D080E0D7011C92CBCE80E0C9CE81E0F9CF66
S11317E040E050E0BA01C8CF4685578560897189C9
S11317F0488759876A877B874115510561057105BB
S1131800E9F09A01AB0122503109410951090297CB
S1131810A109B109281739074A075B0778F4A2819F
S1131820B0E00E94B0240289138924893589DC013F
S1131830CB01800F911FA21FB31FC5CF80E090E0A2
S1131840DC01C1CF4F925F926F927F928F929F92F1
S1131850AF92BF92EF92FF920F931F93CF93DF93B8
S1131860CDB7DEB7A8970FB6F894DEBF0FBECDBFD5
S11318707C011092370410923604A5DA80FF16C05A
S113188082E0A8960FB6F894DEBF0FBECDBFDF91FD
S1131890CF911F910F91FF90EF90BF90AF909F90C9
S11318A08F907F906F905F904F90089502E010E0CA
S11318B02EEF31E040E050E0BA01CE01019688DB22
S11318C0882311F081E0DDCF89819A8185359A4A98
S11318D011F086E0D6CF26E330E040E050E0BA01D4
S11318E0CE01019675DB811106C089819A81863407
S11318F0914409F411C102E010E022E530E040E037
S113190050E0BA01CE01019663DB811106C08981E2
S11319109A818634914409F4FFC000E110E02EEB73
S113192031E040E050E0BA01CE01019651DB811173
S1131930C9CF8D81882369F249845A846B847C845D
S113194002E010E02EEF31E0B301A201CE010196D6
S11319503FDB8111B7CF89819A8185359A4A09F095
S1131960B8CF26E330E0B301A201CE01019630DB0B
S1131970811105C089819A818634914489F002E0FD
S113198010E022E530E0B301A201CE01019620DB94
S113199081119FCF89819A818634914409F099CF2E
S11319A004E210E02DE030E0B301A201CE01019683
S11319B00FDB811187CF2A853B8540E050E021155C
S11319C031054105510521F4288D398D4A8D5B8DF2
S11319D0AC81B0E00E94B0246DA37EA38FA398A72E
S11319E04A815B8160E070E0440E551E661E771EDE
S11319F0F7014286538664867586298122838D8009
S1131A009E80958284828F819885A0E0B0E00097C3
S1131A10A105B10521F48C899D89AE89BF89929471
S1131A2082943FE08322892493228924A12CB12C1F
S1131A30841B950BA60BB70B4DA15EA16FA178A5D6
S1131A40841B950BA60BB70BBC01CD016819790952
S1131A508A099B0930E040E050E00E947F24DA01CB
S1131A60C9010296A11DB11DF70186839783A08742
S1131A70B187BA01A901465F5F40610971094F3F0F
S1131A805F4E61057105B8F1873F2FEF9207A105FD
S1131A90B105B0F5873F9F40A105B10508F019CF06
S1131AA081E0D7018C938DA19EA1AFA1B8A5840D2F
S1131AB0951DA61DB71DF70186879787A08BB18B4F
S1131AC0840C951CA61CB71C4DA15EA16FA178A522
S1131AD0840E951EA61EB71ED70152968D929D9216
S1131AE0AD92BC92559711961C92F0923704E092F5
S1131AF0360480E0C6CE873F9F4FA105B10580F034
S1131B0083E0F701808388A199A1AAA1BBA186875C
S1131B109787A08BB18BD4CF412C512C320140CF6D
S1131B2082E0BFCF0F931F93CF93DF93CDB7DEB780
S1131B30EC970FB6F894DEBF0FBECDBF009136040C
S1131B401091370401151105E9F0AC01F801118277
S1131B50CE01C1969CA38BA3BE016F5F7F4F4097BC
S1131B600DDC811104C0898181110EC083E0EC96E3
S1131B700FB6F894DEBF0FBECDBFDF91CF911F919A
S1131B800F91089585E0F3CF8C8584FDEFCFE0912C
S1131B903604F09137048081833001F140E050E055
S1131BA0BA018B8D9C8DA0E0B0E0842B952BA62BE5
S1131BB0B72BF801868F978FA0A3B1A38D8D9E8D2F
S1131BC0AF8DB8A1828F938FA48FB58F168A178A91
S1131BD0108E118E81E0818380E0C9CF8D899E892A
S1131BE0A0E0B0E0BC0155274427DBCF4F925F92C1
S1131BF06F927F928F929F92AF92BF92CF92DF9219
S1131C00EF92FF920F931F93CF93DF932C016B01FD
S1131C103A01E0903604F0903704FA011182108200
S1131C20E114F10409F4DBC0F701818180FD12C0E5
S1131C3084E0DF91CF911F910F91FF90EF90DF909F
S1131C40CF90BF90AF909F908F907F906F905F9058
S1131C504F90089506891789208D318D828D938D3B
S1131C60A48DB58D801B910BA20BB30BAB0160E06F
S1131C7070E084179507A607B70708F4B2C0C1142B
S1131C80D10409F4B3C05201812C52E0952E34C022
S1131C9046A157A160A571A598013170E401C21B4A
S1131CA0D30BCC16DD0608F4E6014114510409F403
S1131CB08DC0C5018E018CD9F701811194C086892C
S1131CC09789A08DB18D8C019D010C0F1D1F211DC5
S1131CD0311D068B178B208F318FAC0EBD1ECC1A95
S1131CE0DD0AF30180819181C80FD91FD183C0839C
S1131CF0C114D10409F47AC0D901C8019170AA278A
S1131D00BB27F701892B8A2B8B2B09F0C1CFC2810A
S1131D10C150D901C80149E0B695A7959795879513
S1131D204A95D1F7C823E1F182A193A1A4A1B5A159
S1131D30E0913604F09137049C01AD012250310941
S1131D404109510986819781A085B1850297A1092E
S1131D50B109281739074A075B0708F049C0A2816F
S1131D60B0E00E94B0240289138924893589AB012B
S1131D70BC01400F511F621F731F411551056105BE
S1131D807105B1F14C0F511D611D711DF70146A381
S1131D9057A360A771A706891789208D318D7CCF41
S1131DA0F701012B022B032BA1F4668D778D80A103
S1131DB091A1F7016230710581059105A0F062A33C
S1131DC073A384A395A3DC01CB01B2CF80E090E0A0
S1131DD071CF62A173A184A195A1E8D9EACF85E06E
S1131DE028CF6C014CCF118281E023CF80E021CF3A
S1131DF0F701118281E01DCF4F925F926F927F9223
S1131E008F929F92AF92BF92CF92DF92EF92FF9206
S1131E100F931F93CF93DF936C017B015A01C09101
S1131E203604D0913704FA0111821082209709F404
S1131E30D1C0898180FD12C084E0DF91CF911F91D0
S1131E400F91FF90EF90DF90CF90BF90AF909F9055
S1131E508F907F906F905F904F900895672B09F457
S1131E60BBC04E895F89688D798D86FD06C0442785
S1131E705E7F4E8B5F8B688F798F8A8D9B8DAC8D47
S1131E80BD8D841B950BA60BB70B870120E030E0BA
S1131E9080179107A207B30720F47C01892B09F46A
S1131EA0C8C0812C32E0932E08C0E114F10409F477
S1131EB0C0C04E895F89688D798DCA019170009781
S1131EC009F050C01A811150DB01CA0129E0B6950E
S1131ED0A795979587952A95D1F7182309F482C079
S1131EE08AA19BA1ACA1BDA1E0913604F091370475
S1131EF09C01AD0122503109410951098681978124
S1131F00A085B1850297A109B109281739074A07A5
S1131F105B0708F081C0A281B0E00E94B02442882F
S1131F20538864887588AB01BC01440D551D661D3A
S1131F30771D411551056105710509F46DC0410F07
S1131F40511D611D711D4EA35FA368A779A780E091
S1131F5090E0AAD8811160C08981806489838E89C8
S1131F609F8991708401081B190BE016F10608F48F
S1131F7087012801612C712CB301A201C60194D8F8
S1131F8081114AC08E899F89A88DB98D480E591E2A
S1131F906A1E7B1E4E8A5F8A688E798EC00ED11EA1
S1131FA0E01AF10AF50180819181080F191F11834C
S1131FB00083F1E05F22452809F077CF40E050E04C
S1131FC0BA0180E090E070D8811126C089818F7BAE
S1131FD089836BCF85E031CF86FD21C08F7B8983D8
S1131FE080E02BCF452B462B472B81F46E8D7F8DC4
S1131FF088A199A1623071058105910568F06AA3F1
S11320007BA38CA39DA3DC01CB016ECF6AA17BA132
S11320108CA19DA1CBD8EECF198281E00ECF40E0F8
S113202050E0BA0180E090E03FD88111F5CF89817A
S1132030D5CF80E002CF2F923F924F925F926F9262
S11320407F928F929F92AF92BF92CF92DF92EF9244
S1132050FF920F931F93CF93DF93CDB7DEB72A97E9
S11320600FB6F894DEBF0FBECDBF20913604309179
S113207037043E832D832115310509F4ABC0D90102
S113208011962C91119720FD1AC084E02A960FB660
S1132090F894DEBF0FBECDBFDF91CF911F910F919A
S11320A0FF90EF90DF90CF90BF90AF909F908F9074
S11320B07F906F905F904F903F902F9008955A9625
S11320C04D905D906D907C905D97641575058605C7
S11320D0970508F481C0ED81FE8146895789608D9A
S11320E0718D168A178A108E118E41145104610461
S11320F0710409F474C0828190E0A0E0B0E06C0146
S11321007D0189E0CC0CDD1CEE1CFF1C8A95D1F707
S1132110411551056105710529F14A015B01B1E0E1
S11321208B1A9108A108B108C301B2016150710969
S113213081099109A70196010E947F242F83388782
S113214049875A87C501B401A70196010E947F24DB
S11321508F819885A985BA8582179307A407B50747
S113216008F03AC1AD81BE815E968D909D90AD9090
S1132170BC909197FD0182A293A2A4A2B5A280E093
S113218090E0DC01C414D504E604F70408F099C116
S1132190F2E08F169104A104B104B0F0ED81FE8148
S11321A086819781A085B18588169906AA06BB0603
S11321B058F41F01D1018C91823009F482C083301C
S11321C009F49EC0813069F0AD81BE8111961C92E4
S11321D081E05CCF85E05ACF2B013C017CCF80E0CD
S11321E055CFA40156954795480D591D9A01317054
S11321F0CA01892F992786952F3FB1E03B0709F43F
S1132200A8C0F1014285538564857585480F591F1F
S1132210611D711D02E010E0CE0101960E94E807E5
S11322208111D2CF29813A8180FED0C04901929494
S11322308294BFE08B2289249B228924A12CB12C77
S113224022E082169104A104B10408F4BDCFED810B
S1132250FE8186819781A085B18588169906AA0694
S1132260BB0608F0B1CF82A293A2A4A2B5A286892C
S11322709789A08DB18D8C0D9D1DAE1DBF1D868BC4
S1132280978BA08FB18F4C185D086E087F08C4141B
S1132290D504E604F70408F0B9C020903604309061
S11322A03704F10186819781A085B1858816990646
S11322B0AA06BB0608F088CFD1018C91823009F0C0
S11322C07ECFF401FF279F01220F331F77276B2D49
S11322D05A2D492DF10182859385A485B585480F32
S11322E0591F6A1F7B1F02E010E0CE0101960E9475
S11322F0E807811169CF89809A80A12CB12CA0CFE5
S1132300F401EF77FF279F01220F331F220F331FA2
S1132310B501A401E7E07695679557954795EA9549
S1132320D1F7F10182859385A485B585480F591F9E
S11323306A1F7B1F04E010E0CE0101960E94E807AB
S1132340811142CF89809A80AB80BC80FFE0BF229C
S113235077CF9C0140E050E02F83388749875A8724
S1132360D1011A964D915D916D917C911D978F814C
S11323709885A985BA85480F591F6A1F7B1F01E0FC
S113238010E02FEF31E0CE0101960E94E8078111A1
S11323901BCFD1011A964D915D916D917C911D9742
S11323A04F5F5F4F6F4F7F4F8F819885A985BA85A7
S11323B0480F591F6A1F7B1F20E030E0CE010296B0
S11323C00E94E807882309F42DCFFECE49019FE03F
S11323D09922A12CB12C34CF88279927DC018C19A0
S11323E09D09AE09BF0988219921AA21BB21ED814C
S11323F0FE81868B978BA08FB18F481A590A6A0A7F
S11324007B0A82A093A0A4A0B5A0BCCEE091360420
S1132410F0913704480E591E6A1E7B1EAD81BE81A1
S113242056964D925D926D927C925997A5019401B6
S1132430225031094109510986819781A085B185CE
S11324400297A109B109281739074A075B0728F041
S1132450ED81FE81118281E019CEA281B0E00E945B
S1132460B024C288D388E488F588AB01BC014C0D44
S11324705D1D6E1D7F1D411551056105710541F3FB
S1132480AD81BE8112968C9190E00197092E000CCB
S1132490AA0BBB0B29E076946794579447942A952A
S11324A0D1F7482259226A227B22440E551E661E09
S11324B0771EED81FE8146A257A260A671A680E038
S11324C0E5CDED81FE81A6CF4F925F926F927F9210
S11324D08F929F92AF92BF92CF92DF92EF92FF9230
S11324E00F931F93CF93DF93CDB7DEB7AC970FB69F
S11324F0F894DEBF0FBECDBF20913604309137046F
S1132500232B09F4A8C0AB018C01CE018196D8011C
S113251013969C938E931297BE016F5F7F4FC801F1
S11325200E94BE09E82F81117EC08981882311F1A0
S11325308C8584FF94C04091360450913704DA01AD
S11325408C91833009F4A8C0C12CD12C76018B8DD9
S11325509C8DA0E0B0E0C82AD92AEA2AFB2AD80137
S11325601496CD92DD92ED92FC92179726013701D5
S11325707A010BC0E0903604F0903704D801149629
S11325804D905D906D907C901797D8011D921C9290
S1132590B1E04B1651046104710409F45EC0D70123
S11325A016968D909D90AD90BC901997481459043F
S11325B06A047B0408F051C041145104610471049D
S11325C009F44FC0D80118964D925D926D927C9299
S11325D01B97A30192012250310941095109B2E02C
S11325E08B1A9108A108B108281539054A055B051D
S11325F008F05AC0D70112968C91A82FB0E00E941F
S1132600B024D7015296CD90DD90ED90FC90559773
S1132610C60ED71EE81EF91ED8011C96CD92DD9277
S1132620ED92FC921F978E2FAC960FB6F894DEBFF6
S11326300FBECDBFDF91CF911F910F91FF90EF900F
S1132640DF90CF90BF90AF909F908F907F906F90CE
S11326505F904F900895E5E0E6CFE1E0E4CFE3E05A
S1132660E2CF8C91833021F1D80118961D921D92EE
S11326701D921C921B97D7011E965C911E971F9664
S11326804C911F9750963C91509751962C91C52E82
S1132690D42EE32EF22EC0CF8D899E89A0E0B0E027
S11326A07C01DD24CC2453CFC12CD12C7601B4CFB2
S11326B01E964D905D906D907C905197542D452DB4
S11326C0362D272DD80118964D925D926D927C92ED
S11326D01B974114510461047104C9F27ACF4F92DB
S11326E05F926F927F92AF92BF92CF92DF92EF92FE
S11326F0FF920F931F93CF93DF93CDB7DEB7AC97C1
S11327000FB6F894DEBF0FBECDBFFC01A090360417
S1132710B0903704A114B10409F4A8C0CE01819685
S1132720938382836115710509F489C16B017F016B
S11327304485558566857785411551056105710583
S113274009F43BC2208131812F703327220F331FBC
S113275022953295307F3227207F322700E210E025
S1132760CE0101960E94E8078111C4C089818823A3
S113277009F4C7C0853E29F08E3219F09C8593FF79
S1132780CCC0D7010D911C910F5F1F4F51F5A09044
S11327903604B0903704F70114861586168617861A
S11327A0D60119961C92D7010D911C9111970F5FB8
S11327B01F4F09F065C080E0AC960FB6F894DEBFF9
S11327C00FBECDBFDF91CF911F910F91FF90EF907E
S11327D0DF90CF90BF90AF907F906F905F904F90BD
S11327E00895F7014485558566857785A09036045C
S11327F0B0903704411551056105710561F2C801B6
S11328008F709927892B69F54F5F5F4F6F4F7F4F0B
S113281044875587668777874084518462847384AC
S1132820411451046104710419F1D50112968C917B
S113283090E001979801329522952F7023273F70DD
S1132840232782239323892B09F44AC0F701118398
S11328500083411551056105710509F4A1CF980163
S113286073CFF7011183008398016ECF85E0A4CF65
S1132870F501848195810817190708F08CCFE6CFFC
S11328801C968D919D910D90BC91A02D0097A10552
S1132890B10509F490CF98012F703327232BD9F475
S11328A00196A11DB11DF70184879587A687B78777
S11328B06085718582859385611571058105910512
S11328C009F084C1D50114968D919C911597081730
S11328D0190708F070CFD7010D931C9380E06CCFDB
S11328E0C301B2010E94D6086230710581059105C9
S11328F008F0D9C0F701148615861686178681E07C
S11329005BCFD7011C961D921D921D921C921F979E
S1132910A0903604B090370443CFA0903604B09012
S11329203704F6013996D7011C964D915D916D914E
S11329307C911F97452B462B472B09F4A1C180326C
S113294009F457C0853009F4F0C0F6013A96D6016F
S113295019968C938A81803209F44BC0853009F42E
S1132960E6C0F6013B96D6011A968C938B81803291
S113297009F43FC0853009F4DCC0F6013C96D60169
S11329801B968C938C818032A1F1853009F4D3C0DD
S1132990F6013D96D6011C968C938D81803249F1C7
S11329A0853009F4CAC0F6013E96D6011D968C9373
S11329B08E818032F1F0853009F4C1C0F6013F9672
S11329C0D6011E968C938F81803299F0853009F45C
S11329D0B8C0F6017096D6011F968C938885803214
S11329E041F0853009F4AFC0F6017196D6015096D6
S11329F08C938985803209F496C02EE22083DF010E
S1132A00129681838A85803239F0119682838B8570
S1132A10803211F011968383F60190874D8D5E8D7F
S1132A206F8D78A14083518362837383898D9A8DDE
S1132A30958384838F89988D97838683B3CE1182FF
S1132A401082248135814681578121303105410529
S1132A50510509F454CFD5011696CD90DD90ED9033
S1132A60FC9019972C153D054E055F0508F047CFDE
S1132A70211531054105510509F067C08C9183305A
S1132A8009F488C01086118612861386D5011E9615
S1132A900D911D912D913C9151970487158726879F
S1132AA0378780E089CEF501468057806084718441
S1132AB0641575058605970508F069CED701189643
S1132AC06D937D938D939C931B97E0913604F091C5
S1132AD037049B01AC012250310941095109868117
S1132AE09781A085B1850297A109B10928173907F3
S1132AF04A075B0708F066C0A281B0E00E94B024D8
S1132B004288538864887588AB01BC01440D551D07
S1132B10661D771DD7011C964D935D936D937C9331
S1132B201F975F0193CEDF0177CF85EE0ECF85EE41
S1132B3018CF85EE22CF85EE2BCF85EE34CF85EEF0
S1132B403DCF85EE46CF85EE4FCF20873187428734
S1132B5053872250310941095109B2E0CB1AD108F7
S1132B60E108F1082C153D054E055F0510F5D5016A
S1132B7012968C91A82FB0E00E94B024D5015296F1
S1132B800D911D912D913C915597060F171F281FEC
S1132B90391F83CF1E962D913D914D915C91519794
S1132BA02087318742875387211531054105510517
S1132BB081F600E010E0980170CF14861586168621
S1132BC01786EECD40E050E0BA01A4CFF501228192
S1132BD030E0A901415051099801329522952F7096
S1132BE023273F70232724233523232B09F073CE77
S1132BF00E94D608623071058105910508F47FCEE4
S1132C00D50116964D905D906D907C901997641542
S1132C1075058605970508F0CECDF70160877187A5
S1132C2082879387E0913604F09137049B01AC01CD
S1132C30225031094109510986819781A085B185C6
S1132C400297A109B109281739074A075B07A0F4BD
S1132C50A281B0E00E94B0244288538864887588B9
S1132C60DC01CB01840D951DA61DB71DF7018487DA
S1132C709587A687B7872FCE80E090E0DC01F6CF5A
S1132C80DF0190CD8A3049F09091C00095FFFCCFD0
S1132C908093C60080E090E008959091C00095FF75
S1132CA0FCCF9DE09093C600EFCF80E091EE09D079
S1132CB084E091E09093F50E8093F40E08950C94C3
S1132CC03725A0E0B0E0880F991FAA1FBB1F880F0B
S1132CD0991FAA1FBB1F9C01AD01220F331F441F64
S1132CE0551F220F331F441F551F60E074E284EF09
S1132CF090E00E947F24215031093093C500209335
S1132D00C40088E08093C1008EE08093C2000895DF
S1132D108091EE0E811105C08091E80E846080934D
S1132D20E80E8091EC0E83FF05C08091E80E80626E
S1132D308093E80E89EF9AE19093330180933201F6
S1132D4008954091E60E5091E70EF8948091840026
S1132D509091850078942091E40C3091E50CBC01AD
S1132D60621B730B6417750760F09093E50C8093F6
S1132D70E40C80913804909139049093330180934A
S1132D8032010895F894809184009091850078949C
S1132D909093E50C8093E40CE8EEFEE01182168239
S1132DA0178280E797E19093E70E8093E60E88E818
S1132DB096E1909339048093380481EA96E19093E4
S1132DC033018093320181E0809338010895F894AF
S1132DD0809184009091850078949093E50C809381
S1132DE0E40C8091E90E2091EB0E281740F110922B
S1132DF0EF0E90E0821B910997FD29C060E273E019
S1132E00869FA001879F500D969F500D11245093CB
S1132E10E70E4093E60E2093E90E2093EE0E88E829
S1132E2096E1909339048093380481EA96E1909373
S1132E3033018093320181E080933801089591E059
S1132E409093EF0E90E0821B910997FFD7CF919555
S1132E5081959109D3CFF894809184009091850055
S1132E6078949093E50C8093E40C8091EC0E807F31
S1132E70803599F178F0803611F0803769F481E07B
S1132E808093EF0E8091E90E882389F0815080931E
S1132E90E90E0DC0803409F18091EF0E811120C03C
S1132EA08091E90E803518F48F5F8093E90E80E7F6
S1132EB097E19093E70E8093E60E88E896E190936D
S1132EC039048093380481EA96E190933301809326
S1132ED0320181E08093380108951092EF0EE0CF23
S1132EE0813029F7CFCF109264041092630480E4F8
S1132EF099E1909333018093320183E08093380108
S1132F00F894809184009091850078949093E50CD6
S1132F108093E40C089589EF9AE1909333018093B0
S1132F20320183E080933801F89480918400909179
S1132F30850078949093E50C8093E40C08951092A6
S1132F40640410926304109262041092610410925B
S1132F505F0410925E0489E898E1909333018093B2
S1132F60320183E0809338010895F89480918400BD
S1132F709091850078942091E40C3091E50CAC019B
S1132F80421B530B40345105C8F19093E50C8093D8
S1132F90E40C90913C048091E80E96FD84602091AD
S1132FA063043091640482FD07C0F901F170EA51B1
S1132FB0F34F4091EB0E4083906490933C04826005
S1132FC08093E80E81E0809360042F5F3F4F30933D
S1132FD064042093630480916104909162040196D7
S1132FE090936204809361048F3F910539F030F02F
S1132FF089EF9AE190933301809332010895F89414
S1133000809184009091850078942091E40C309113
S1133010E50CAC01421B530B403C510510F190935D
S1133020E50C8093E40C80913C0486FD1BC09091D8
S1133030EB0E9E3499F110925F0410925E0420917D
S11330406304309164042F5F3F4F309364042093F2
S11330506304806480933C048091E80E82608093D2
S1133060E80E0895809164048F93809163048F9394
S113307087E792E09F938F930E9424258091E80E26
S113308084608093E80E89EF9AE1909333018093F2
S113309032010F900F900F900F90089520915E04CD
S11330A030915F042F5F3F4F30935F0420935E04A1
S11330B02139314020F289EF9AE1909333018093D2
S11330C032010895809138018130E1F480913A0110
S11330D0811113C0F8949091650491110BC0F89478
S11330E02091840030918500789481E02037374125
S11330F008F080E07894811106C08091E80E8D7FFD
S11331008093E80E08958091E80E82608093E80E23
S11331100895F89480916504811128C0F894209151
S1133120840030918500789481E020373741F0F4B1
S1133130789481111AC080913C04806480933C048B
S11331408091E80E82608093E80E8FEF97E1909370
S1133150330180933201F89480918400909185002A
S113316078949093E50C8093E40C089580E0E0CF8C
S1133170F8942091650430E0922F8827F8942091E8
S11331808400309185007894232F3327282B392B02
S11331903695279536952795A3E4B6E10E94A12498
S11331A0969587957894803108F08FE0482F417088
S11331B050E0440F551F440F551F440F551F86956B
S11331C0482B4F5F8091ED0E8413089580E79BE1B7
S11331D09093330180933201F8948091840090910C
S11331E0850078949093E50C8093E40C0895F8940A
S11331F02091650430E0922F8827F8942091840070
S1133200309185007894232F3327282B392B36953A
S1133210279536952795A3E4B6E10E94A1249695B7
S113322087957894803108F08FE0482F417050E002
S1133230440F551F440F551F440F551F8695482BA7
S11332404F5F8091EA0E8413089580913C0480645A
S113325080933C048091E80E82608093E80E85EBB5
S113326097E19093330180933201F8948091840024
S11332709091850078949093E50C8093E40C0895E4
S1133280F894809184009091850078942091E40CC6
S11332903091E50CBC01621B730B6034710508F4BA
S11332A06BC09093E50C8093E40C80916104909141
S11332B06204892B49F080913C0486FF05C080910B
S11332C0E80E84608093E80E809163049091640416
S11332D08630910508F051C08330910509F45BC034
S11332E0B8F581309105B9F18230910509F04CC0EF
S11332F0F8942091650430E0922F8827F894209167
S11333008400309185007894232F3327282B392B80
S11333103695279536952795A3E4B6E10E94A12416
S11333209695879578948031D0F5482F417050E078
S1133330440F551F440F551F440F551F8695482BA6
S11333404F5F4093EB0E809163049091640405C039
S113335086309105C8F41092EB0E019690936404A4
S11333608093630480913C04806480933C04809146
S1133370E80E82608093E80E089589EF9AE19093B5
S113338033018093320108952091E90E2093EB0ECE
S11333902093EA0EE2CF21E02093EB0EDECF8FE004
S11333A0C4CF1F93CF93DF938091EC0E80718093F1
S11333B0F10E82E08093380180913501833009F465
S11333C06BC08091E90E90E0880F991F20913B0417
S11333D0820F911D82959295907F9827807F9827E0
S11333E02091EA0E2150820F911D9093B70C809387
S11333F0B60C9C012170332710926304209364045B
S1133400209136013091370182179307F0F52E5F32
S11334103F4FEC01CE7FC217D30749F0CE01A0E0A5
S1133420B0E06627782F892F9A2F0E941B1042EE56
S11334305CE060E072E086EE9CE00E94F60D182FDE
S11334408093B50C811137C0D0933701C0933601F6
S1133450109262041092610480E490E09093E70E6D
S11334608093E60E87EF98E19093390480933804B3
S113347081EA96E1909333018093320182E0809354
S11334803801DF91CF911F9108952E5F3F4F82172E
S1133490930708F0BECFDCCF8091E80E8064809360
S11334A0E80E89EF9AE19093330180933201DF9122
S11334B0CF911F9108958AE992E001DC1330D9F08D
S11334C068F0153039F098F0163011F68BEE92E072
S11334D0F6DBBECF8CED92E0F2DBBACF113079F09F
S11334E0123009F0B5CF86EB92E0E9DBB1CF8EEC78
S11334F092E0E5DBADCF83EC92E0E1DBA9CF8AEA91
S113350092E0DDDBA5CFCF938091E80E8E7F809390
S1133510E80E80913C048F7380933C048091600496
S1133520811108C082E698E19093330180933201BF
S1133530CF9108956091360170913701CB01A0E0DD
S1133540B0E06627782F892F9A2F0E941B1042EE35
S11335505CE060E072E086EE9CE00E94FC0EC82F06
S11335608093B50C811116C042EE5CE060E070E01F
S113357080E090E00E94FC0EC091B50CC11124C003
S11335801092600482E698E19093330180933201B3
S1133590CF9108958CEF92E092DBC330D1F0C43028
S11335A050F0C53011F1E8F0C63009F0BBCF8BEE16
S11335B092E085DBB7CFC13081F0C23009F0B2CFE1
S11335C086EB92E07CDBAECF8CE093E078DBC3301B
S11335D031F783EC92E073DBA5CF8AEA92E06FDBEC
S11335E0A1CF8EEC92E06BDB9DCF8CED92E067DB9C
S11335F099CFCF938091E80E8E7F8093E80E8091CF
S11336003C048F7B806880933C048091600481112A
S113361008C082E698E19093330180933201CF9100
S113362008956091360170913701CB01A0E0B0E0BC
S11336306627782F892F9A2F0E941B1042EE5CE098
S113364060E072E086EE9CE00E94FC0EC82F80933E
S1133650B50C811116C042EE5CE060E070E080E0E1
S113366090E00E94FC0EC091B50CC11124C01092D0
S1133670600482E698E19093330180933201CF9104
S113368008958CEF92E01BDBC330D1F0C43050F0CE
S1133690C53011F1E8F0C63009F0BBCF8BEE92E0F3
S11336A00EDBB7CFC13081F0C23009F0B2CF86EB68
S11336B092E005DBAECF8CE093E001DBC33031F761
S11336C083EC92E0FCDAA5CF8AEA92E0F8DAA1CFA3
S11336D08EEC92E0F4DA9DCF8CED92E0F0DA99CFA3
S11336E0CF93F894809184009091850078942091F0
S11336F0E40C3091E50CAC01421B530B40345105F2
S113370088F19093E50C8093E40C8091610490918E
S1133710620420913C04009739F126FD4DC08F3F8F
S1133720910511F108F18091F10E8823E9F180915E
S1133730630490916404009721F09170892B09F43B
S113374041C010926204109261048091ED0E8F5F6B
S11337508093ED0E813140F588EB98E1909333012D
S113376080933201CF910895409163045091640491
S1133770FA01F170EA51F34F30813093EB0E20647B
S113378020933C042091E80E22602093E80E4F5FC2
S11337905F4F5093640440936304019690936204D2
S11337A080936104CF91089589EF9AE19093330156
S11337B080933201CF9108953091E80E34603093B4
S11337C0E80EADCF42EE5CE060E072E086EE9CE095
S11337D00E94F60DC82F8093B50C882309F4B1CF4D
S11337E08AE992E06CDAC330A1F050F0C530E9F018
S11337F0C0F0C63009F0A5CF8BEE92E060DAA1CF1D
S1133800C13059F0C23009F09CCF86EB92E057DA10
S113381098CF83EC92E053DA94CF8AEA92E04FDABD
S113382090CF8EEC92E04BDA8CCF8CED92E047DABD
S113383088CF1F920F920FB60F9211248F939F93EC
S1133840809165048F5F80936504873048F01092FF
S113385065049F918F910F900FBE0F901F90189544
S11338608630B9F780E895EE9093850080938400C4
S11338709F918F910F900FBE0F901F901895CF932B
S1133880C62F1DDAC33001F148F0C53079F0C0F01D
S1133890C63081F48BEE92E0CF9111CAC13061F051
S11338A0C23041F486EB92E0CF9109CA8CED92E0EC
S11338B0CF9105CACF9108958AEA92E0CF91FFC9CA
S11338C08EEC92E0CF91FBC983EC92E0CF91F7C9E3
S11338D08F929F92AF92BF92CF92DF92EF92FF921C
S11338E00F931F93CF93DF93CDB7DEB7E4970FB653
S11338F0F894DEBF0FBECDBF982E80916004811175
S1133900EBC081E080933A018FEF9FEF90933701F2
S11339108093360188EB9CE00E94220C182F809340
S1133920B50C8823B9F186E293E0C9D9133009F4C0
S11339306CC108F49EC1153009F46BC108F4D6C1FA
S1133940163019F48BEE92E0BAD90E94DB0160E0E4
S113395080E00E94120284E393E00E946C0261E022
S113396080E00E94120283E493E00E946C02E496D9
S11339700FB6F894DEBF0FBECDBFDF91CF911F917C
S11339800F91FF90EF90DF90CF90BF90AF909F90FA
S11339908F90089586E793E00E94920D182F8093EC
S11339A0B50C882309F44AC08FE493E088D9133016
S11339B009F4FDC108F40BC1153009F4F3C108F48E
S11339C0ECC1163019F48BEE92E079D90E94DB0138
S11339D060E080E00E94120287E693E00E946C029D
S11339E061E080E00E94120284E793E00E946C028E
S11339F0892D90E001969F938F9381E893E09F93A4
S1133A008F938E010F5F1F4F1F930F930E946725A3
S1133A108CE893E054D9C80152D9C8010E94920D90
S1133A20182F8093B50C0F900F900F900F900F905C
S1133A300F9081113CC110923A0199CF42EE5CE0A3
S1133A4060E072E086EE9CE00E94F60D182F8093F1
S1133A50B50C8111C6C04091E20C5091E30C4115A4
S1133A60510509F462C086EEC82E8CE0D82E20E001
S1133A7080E0E12C92E0F92E00E010E03BEAA32E76
S1133A8033E0B32E13C09D30B1F09923A1F0981602
S1133A9009F4DEC0981608F448C00F5F1F4F0417DE
S1133AA0150708F042C0843008F03FC0D6019D914C
S1133AB06D019A3041F7FFEFEF1AFF0A0E151F054B
S1133AC009F08F5FE1E0F0E0EC0FFD1FE20FF11D64
S1133AD01082780120E0DECF6091360170913701C9
S1133AE0CB01A0E0B0E06627782F892F9A2F0E949F
S1133AF01B1042EE5CE060E072E086EE9CE00E9407
S1133B00FC0E182F8093B50C8111BDC042EE5CE011
S1133B1060E070E080E090E00E94FC0E1091B50C33
S1133B2011110BC110926004ECCE89818D3209F41D
S1133B3074C083E0981609F477C08CE893E0BFD88A
S1133B40CE010196BCD8CE0101960E94920D182F89
S1133B508093B50C8111ABC010923A01809152014F
S1133B60909153019AA389A3FE01B39682E1DF01E8
S1133B701D928A95E9F70E94DB0160E080E00E94D3
S1133B801202892D90E08F5B9F4F9F938F9387E460
S1133B9091E09F938F938E010F5D1F4F1F930F939F
S1133BA096D7C8010E946C0261E080E00E94120274
S1133BB0BE016F5F7F4FC80109D7C8010E946C0224
S1133BC00F900F900F900F900F900F90D0CE113058
S1133BD009F4DEC0123009F0F9CE86EB92E06FD81A
S1133BE0F5CE83EA93E06BD8133009F4FEC008F4F1
S1133BF0BAC0153009F4F4C008F4EDC0163009F069
S1133C002ACF8BEE92E05BD826CF83EC92E057D894
S1133C109CCE8CED92E053D898CE8A81811189CFC5
S1133C2081E080933A01A3CE10923A014FE150E033
S1133C30BE016F5F7F4F8EE394E0DDD68EE394E0A8
S1133C4010925D049F938F93FFD60F900F908FCEA9
S1133C5088248394820EE1E0F0E0EC0FFD1FE20F74
S1133C60F11D9083BEE1B81508F44AC0282D892DB2
S1133C7014CF113009F43FC0123009F066CE86EB40
S1133C8092E01DD862CE8CEF92E019D8133009F47B
S1133C905BC0143000F1153009F48EC008F459C02B
S1133CA0163009F02ECE8BEE92E009D82ACE86E9A2
S1133CB093E005D8133009F489C0A8F1153009F44C
S1133CC080C008F45BC0163009F051CE8BEE92E050
S1133CD00E945F164CCE113009F440C0123009F036
S1133CE010CE86EB92E00E945F160BCE8EEC92E033
S1133CF00E945F162ACE8AEA92E00E945F1625CEC1
S1133D0018A2E1E0F0E0EC0FFD1FFF93EF93BF92E8
S1133D10AF929AD60F900F900F900F904091E20CB3
S1133D205091E30CA3CF113071F1123009F01FCE82
S1133D3086EB92E00E945F161ACE8CE093E00E941C
S1133D405F16133009F0A5CF83EC92E00E945F1652
S1133D50D8CD8EEC92E00E945F16D3CD8AEA92E031
S1133D600E945F16CECD113009F444C0123009F020
S1133D7072CE86EB92E00E945F166DCE8EEC92E0DE
S1133D800E945F16F4CD8AEA92E00E945F16EFCD9E
S1133D908AEA92E00E945F1619CE8EEC92E00E94AD
S1133DA05F1614CE8CED92E00E945F160FCE83EC6A
S1133DB092E00E945F160ACE8CED92E00E945F169C
S1133DC0A0CD8CED92E00E945F16D1CD83EC92E001
S1133DD00E945F16CCCD8EEC92E00E945F163BCE23
S1133DE08CED92E00E945F1636CE83EC92E00E9446
S1133DF05F1631CE8AEA92E00E945F162CCECF93F2
S1133E00DF93E091EC0ECE2FC295CF7080916004C9
S1133E10811115C08091390190913501981719F0DD
S1133E208093350155DDEC2FF0E0EE0FFF1FEE5EC1
S1133E30FE4F0190F081E02DDF91CF9109946091C4
S1133E40360170913701CB01A0E0B0E06627782FEE
S1133E50892F9A2F0E941B1042EE5CE060E072E012
S1133E6086EE9CE00E94FC0ED82F8093B50C811145
S1133E700FC042EE5CE060E070E080E090E00E9401
S1133E80FC0ED091B50CD11120C010926004C2CFA9
S1133E908CEF92E00E945F16D330E9F0D43058F0F2
S1133EA0D53041F110F1D63009F0B4CF8BEE92E069
S1133EB00E945F16AFCFD13099F0D23009F0AACF6B
S1133EC086EB92E00E945F16A5CF8CE093E00E94FF
S1133ED05F16D33019F783EC92E00E945F169ACFF5
S1133EE08AEA92E00E945F1695CF8EEC92E00E94DF
S1133EF05F1690CF8CED92E00E945F168BCFAF924D
S1133F00BF92CF92DF92EF92FF920F931F93CF93C2
S1133F10DF9380912B0490912C04892B09F4ABC07E
S1133F20809160048111D1C081E080933A018FEFC8
S1133F309FEF909337018093360181EC93E00E94C8
S1133F405F1688EB9CE00E94220CC82F8093B50C6E
S1133F5081119CC086E793E00E94920DC82F809344
S1133F60B50C8111FFC042EE5CE060E072E086EEC9
S1133F709CE00E94F60DC82F8093B50C811115C1E9
S1133F80C091E20CD091E30C209709F479C16091BF
S1133F902D04E6EEFCE0E12CF12C40E052E000E0E0
S1133FA012E020E080E090E010C03D3089F033233F
S1133FB079F0261709F4E0C0621798F001968C177F
S1133FC09D0709F4EEC0243060F431913A3069F76A
S1133FD04F5F5F4F4817590709F4A0C02F5FAC012A
S1133FE0EBCF8FEFE81AF80AA0902B04B0902C04C2
S1133FF0F50101900020E9F731976F01CA18DB0839
S113400009F4C1C0AE014E195F09B7016A51734F7B
S1134010C601800F911F8A51934FB5D4A601B501F3
S1134020C8018A51934FA6D4C00FD11FCC0DDD1DFA
S1134030BE016E197F097093E30C6093E20C42EEAB
S11340405CE086EE9CE00E94FC0EC82F8093B50CC9
S11340508111DEC042EE5CE060E070E080E090E060
S11340600E94FC0EC82F8093B50C8111BCC0109225
S11340702C0410922B04DF91CF911F910F91FF908C
S1134080EF90DF90CF90BF90AF90089586E293E0D9
S11340900E945F16C33009F46CC0C43008F45AC0DF
S11340A0C53009F454C008F476C0C63021F78BEE4D
S11340B092E0DF91CF911F910F91FF90EF90DF90ED
S11340C0CF90BF90AF900C945F16609136017091C1
S11340D03701CB01A0E0B0E06627782F892F9A2F13
S11340E00E941B1042EE5CE060E072E086EE9CE011
S11340F00E94FC0EC82F8093B50C811111C042EEB2
S11341005CE060E070E080E090E00E94FC0EC09112
S1134110B50CC11190C01092600406CFAC014CCF15
S11341208CEF92E00E945F16C33009F48BC0C43058
S113413008F443C0C53009F48AC008F44FC0C6303F
S113414009F0F2CE8BEE92E00E945F16EDCE8CED7C
S113415092E0AFCFC13011F1C23009F08CCF86EBC1
S113416092E0A7CF8FE493E00E945F16C33009F07A
S113417094CF83EC92E09DCF011522E0120739F130
S11341807C01262F1BCF86ED93E071D410922C0472
S113419010922B0470CF8EEC92E08BCF8AEA92E0DF
S11341A088CF2FEFE21AF20A1FCF83EA93E00E942E
S11341B05F16C33009F071CFDCCFC13051F0C2308B
S11341C009F0B2CE86EB92E00E945F16ADCE8C0170
S11341D0D7CF8AEA92E00E945F16A6CE8EEC92E0D8
S11341E00E945F16A1CE8CEF93E00E945F16C3304D
S11341F009F46AC088F1C53009F461C008F45AC0F2
S1134200C63009F034CF8BEE92E00E945F162FCFB8
S113421087EE93E00E945F16C33009F441C030F189
S1134220C530C9F198F1C63009F014CF8BEE92E095
S11342300E945F160FCF8CE093E00E945F16C3309C
S113424009F075CF83EC92E00E945F166DCE8CED81
S113425092E00E945F1668CEC13039F1C23009F095
S113426006CF86EB92E00E945F1601CFC13089F140
S1134270C23009F0EFCE86EB92E00E945F16EACEE0
S1134280EE24E394F12C00E012E0AECE8EEC92E04A
S11342900E945F16DFCE8CED92E00E945F16DACEAC
S11342A083EC92E00E945F16D5CE8AEA92E00E94E7
S11342B05F16DDCE8EEC92E00E945F16D8CE8CEDB8
S11342C092E00E945F16D3CE83EC92E00E945F16C8
S11342D0CECE8AEA92E00E945F16BCCE9F92AF9245
S11342E0BF92CF92DF92EF92FF920F931F93CF93DF
S11342F0DF93009709F09CC090902D04C6EEDCE09B
S113430010E050E2A52E5CE3B52E6DE2C62EDC2C47
S113431073E4E72EE0E4FE2E01E048E050E060E2C2
S113432070E0CE0141D381E4810F8883191509F42B
S1134330A0C0E8861986FA860B871C860D871E8620
S11343401F5F1F876096133041F740E1E42EF12C84
S113435000E010E06EE374E085EA9CE00E946412E1
S1134360C82F8093B50C811171C0C3E023E4A22E41
S113437030E4B32ED1E06AE77CE085EA9CE00E9459
S11343806F138093B50C81111AC09091830C9923FB
S1134390B1F09091820C94FD10C067E873E083E85B
S11343A09CE038D3892B49F02C2F30E020173107BB
S11343B018F02E153F0588F0CF5FC7FFDCCFC09300
S11343C03D04DF91CF911F910F91FF90EF90DF900B
S11343D0CF90BF90AF909F90089522953295307FF3
S11343E03227207F32273327C9018A51934F6C012A
S11343F048E050E060E270E0D7D2E3E8FCE00190EE
S11344000020E9F7AF0144585C404830E8F048E048
S113441050E063E87CE0C601EED2F601A086118686
S1134420B286D3871486D5871686CF5FC787C5CF54
S11344308C0102951295107F1027007F10277801B8
S1134440F0E1EF0EF11C86CF5527E3CF83E991E02D
S11344500E945F16C33051F188F0C53011F1B8F0F5
S1134460C63021F48BEE92E00E945F1610923D0458
S11344707CCFBA82A982DC82CB825BCFC13061F06F
S1134480C230A1F786EB92E00E945F16EFCF8EEC6C
S113449092E00E945F16EACF8AEA92E00E945F16D9
S11344A0E5CF8CED92E00E945F16E0CF83EC92E0C2
S11344B00E945F16DBCF0F931F93CF93DF93C091BE
S11344C03D048CE990E08C1B91092FE0289F80012A
S11344D0299F100D1124CC2349F181E08C0FC09346
S11344E03D041092C70D8093C80D86E18093C90DD9
S11344F0C093CA0D0093CB0D1093CC0D80E1809333
S1134500CD0D48E050E060E270E080ED9DE04CD2DB
S113451087E0EBE1F4E0ABEDBDE001900D928A950C
S1134520E1F7DF91CF911F910F9108956EE374E04D
S113453085EA9CE00E946412D82F8093B50C811107
S11345401FC0C3E06AE77CE085EA9CE00E946F1329
S11345508093B50C8111C1CF8091830C882309F419
S1134560BCCF8091820C84FD08C067E873E083E8C7
S11345709CE050D2892B09F0CF5FC7FFE3CFADCFCA
S113458083E991E00E945F16D330B1F058F0D53042
S1134590F9F0C0F0D63011F58BEE92E00E945F1670
S11345A081E09DCFD130E1F0D230C1F486EB92E0CE
S11345B00E945F1681E093CF83EC92E00E945F1625
S11345C081E08DCF8EEC92E00E945F1681E087CF70
S11345D08CED92E00E945F1681E081CF81E07FCF75
S11345E08AEA92E00E945F1681E079CFCF93DF934D
S11345F0DFEFD80FD33048F4D0932D0410922C045D
S113460010922B04DF91CF9108956EE374E085EA54
S11346109CE00E946412C82F8093B50C811127C0BE
S1134620C3E003C0CF5FC7FDEDCF6AE77CE085EA56
S11346309CE00E946F138093B50C8111E3CF8091AD
S1134640830C8823F9F28091820C84FDECCF67E817
S113465073E083E89CE0DED1892B29F3DC13E2CFFD
S113466083E89CE090932C0480932B04CBCF83E9C4
S113467091E00E945F16C33001F188F0C53051F01B
S1134680B8F0C63021F48BEE92E00E945F161092CF
S11346903D04C6CF8CED92E00E945F16F8CFC13086
S11346A089F0C230A1F786EB92E00E945F16EFCF4B
S11346B08EEC92E00E945F16EACF83EC92E00E94B7
S11346C05F16E5CF8AEA92E00E945F16E0CF1F935F
S11346D0CF93DF938091EC0E80718093F10E509113
S11346E03B048091E90E4091EA0E90E0880F991FF7
S11346F09C01250F311D22953295307F3227207F72
S113470032276FEF640F260F311D3093B70C2093BF
S1134710B60C4093ED0E40913501433009F444C08A
S113472010926304C9018170992780936404809175
S11347303601909137012817390788F50296E90167
S1134740CE7FC817D90749F0CE01A0E0B0E06627B4
S1134750782F892F9A2F0E941B1042EE5CE060E0B4
S113476072E086EE9CE00E94F60D182F8093B50C43
S1134770811141C0D0933701C09336011092620475
S11347801092610488EB98E1909333018093320195
S113479082E080933801DF91CF911F9108950296B2
S11347A02817390760F6EACF2830310558F0283049
S11347B03105A9F0852B1ADFA2DB10926404109254
S11347C06304DCCF80E091E0E6EEFCE0DF01AC01C5
S11347D01D9241505040E1F7C90180DDEECF80E0E9
S11347E091E0E6EEFCE0DF019C011D922150304097
S11347F0E1F761DEE2CF8AE992E00E945F161330AE
S1134800B1F058F0153011F1E0F0163009F0B6CFE0
S11348108BEE92E00E945F16B1CF113069F0123036
S113482009F0ACCF86EB92E00E945F16A7CF83EC31
S113483092E00E945F16A2CF8AEA92E00E945F167D
S11348409DCF8EEC92E00E945F1698CF8CED92E0A3
S11348500E945F1693CF80912A0490913401981797
S113486081F080933401982F937090933901282F0D
S113487030E0209530952295217020933B0482FFEF
S113488022C080913A048823C9F08091EC0E1092E2
S11348903A04982F907F903DF1F08091E80E80FDCE
S11348A00DC081E08093E80E10923C048FEF9EE1EE
S11348B09093330180933201FC010994E091320119
S11348C0F0913301099483E294E0D1D01092EC0E7C
S11348D010923A04E2CF9091E80E9E7F9093E80EF6
S11348E091E0909338018F7039F4E3E8FAE1F093A2
S11348F03301E09332010994E8E8F6E1F8CFA1E24C
S11349001A2EAA1BBB1BFD010DC0AA1FBB1FEE1F45
S1134910FF1FA217B307E407F50720F0A21BB30B90
S1134920E40BF50B661F771F881F991F1A9469F70C
S113493060957095809590959B01AC01BD01CF0168
S11349400895A29FB001B39FC001A39F700D811D64
S11349501124911DB29F700D811D1124911D089584
S1134960F0DFA59F900DB49F900DA49F800D911D25
S113497011240895FB01DC0102C001900D92415005
S11349805040D8F708956817790768F4FB01DC01F3
S1134990E40FF51FA40FB51F02C002900E92415000
S11349A05040D8F70895E6CFDC0101C06D93415023
S11349B05040E0F70895FC018191861721F0882387
S11349C0D9F7992708953197CF010895FB01DC01A8
S11349D001900D920020E1F70895FB01DC014150A4
S11349E0504030F08D910190801919F40020B9F7EE
S11349F0881B990B0895FB01DC014150504048F09D
S1134A0001900D920020C9F701C01D924150504001
S1134A10E0F70895FB0151915523A9F0BF01DC0192
S1134A204D9145174111E1F759F4CD010190002052
S1134A3049F04D9140154111C9F3FB014111EFCFEC
S1134A4081E090E001970895A0E0B0E0E9E2F5E2AA
S1134A50EFC2AE014B5F5F4FFA0161917191AF01FB
S1134A608091F40E9091F50E51D0E2E0FDC20F93C7
S1134A701F93CF93DF93E091F40EF091F50E238111
S1134A8021FF1BC08C01D0E0C0E0F80181918F01AF
S1134A906091F40E7091F50EDB011896ED91FC9186
S1134AA01997882331F00995892B79F3DFEFCFEF3C
S1134AB0ECCF8AE00995892B19F08FEF9FEF02C0A4
S1134AC08D2F9C2FDF91CF911F910F910895AEE010
S1134AD0B0E0ECE6F5E2AAC20D891E8986E08C837B
S1134AE01A8309838FEF9FE79E838D83AE01475E10
S1134AF05F4F6F89788DCE01019608D0EF81F885DC
S1134B00E00FF11F10822E96E4E0ACC2ABE0B0E0FF
S1134B10EBE8F5E27DC26C017B018A01FC0117829E
S1134B201682838181FFBFC1CE0101963C01F6014B
S1134B309381F70193FD859193FF81917F018823F0
S1134B4009F4ADC1853239F493FD859193FF8191C8
S1134B507F01853221F4B60190E0C0D1E8CF912CD9
S1134B60212C312CFFE1F315D8F08B3279F038F495
S1134B70803279F08332A1F4232D20611DC08D325F
S1134B8061F0803369F4232D216016C0832D826087
S1134B90382EE32DE4603E2E2AC0F32DF8601DC0AC
S1134BA037FC2DC020ED280F2A3040F08E32B9F4A6
S1134BB036FC75C1232D2064322E19C036FE06C082
S1134BC08AE0989E200D1124922E11C0EAE02E9EB8
S1134BD0200D1124222EF32DF0623F2E08C08C36B6
S1134BE021F4832D8068382E02C0883641F4F70101
S1134BF093FD859193FF81917F018111B3CF982F0C
S1134C009F7D9554933028F40C5F1F4F9FE3998345
S1134C100DC0833631F0833771F0833509F055C008
S1134C2020C0F801808189830E5F1F4F88248394FC
S1134C30912C530112C02801F2E04F0E511CF801CF
S1134C40A080B18036FE03C0692D70E002C06FEF12
S1134C507FEFC50138D14C018201F32DFF773F2E40
S1134C6015C0280122E0420E511CF801A080B18039
S1134C7036FE03C0692D70E002C06FEF7FEFC501FF
S1134C8017D14C01F32DF0683F2E820133FC19C07B
S1134C90822D90E088169906A0F4B60180E290E097
S1134CA01DD12A94F5CFF50137FC859137FE81910A
S1134CB05F01B60190E012D121102A9421E0821AFA
S1134CC091088114910479F7E1C0843611F0893692
S1134CD039F5F80137FE07C06081718182819381C3
S1134CE00C5F1F4F08C060817181072E000C880B78
S1134CF0990B0E5F1F4FF32DFF763F2E97FF09C0D0
S1134D0090958095709561957F4F8F4F9F4FF06878
S1134D103F2E2AE030E0A3011DD1882E861844C01E
S1134D20853731F4232D2F7EB22E2AE030E025C0C2
S1134D30932D997FB92E8F36C1F018F4883579F008
S1134D40AEC0803719F0883721F0A9C0E92FE0619F
S1134D50BE2EB4FE0DC0FB2DF460BF2E09C034FE80
S1134D600AC0292F2660B22E06C028E030E005C014
S1134D7020E130E002C020E132E0F801B7FE07C0D4
S1134D8060817181828193810C5F1F4F06C06081B5
S1134D90718180E090E00E5F1F4FA301DBD0882E6D
S1134DA08618FB2DFF773F2E36FE0DC0232D2E7F58
S1134DB0A22E891458F434FE0BC032FC09C0832D92
S1134DC08E7EA82E05C0B82CA32C03C0B82C01C01D
S1134DD0B92CA4FE0FC0FE01E80DF11D80818033C3
S1134DE021F49A2D997EA92E09C0A2FE06C0B3947F
S1134DF0B39404C08A2D867809F0B394A3FC10C040
S1134E00A0FE06C0B21480F4280C922C9B180DC08E
S1134E10B21458F4B60180E290E060D0B394F8CFB5
S1134E20B21418F42B1802C0982C212CA4FE0FC025
S1134E30B60180E390E052D0A2FE16C0A1FC03C0EC
S1134E4088E790E002C088E590E0B6010CC08A2DA6
S1134E50867851F0A1FE02C08BE201C080E2A7FC7B
S1134E608DE2B60190E03AD0891430F4B60180E3C3
S1134E7090E034D09A94F8CF8A94F301E80DF11DB0
S1134E808081B60190E02AD08110F6CF222009F467
S1134E904ECEB60180E290E021D02A94F7CFF601FD
S1134EA08681978102C08FEF9FEF2B96E2E1CCC001
S1134EB0FC010590615070400110D8F780959095E1
S1134EC08E0F9F1F0895FC016150704001900110E6
S1134ED0D8F7809590958E0F9F1F08950F931F9379
S1134EE0CF93DF93FB01238121FD03C08FEF9FEF5D
S1134EF02CC022FF16C04681578124813581421778
S1134F00530744F4A081B1819D012F5F3F4F31834A
S1134F1020838C93268137812F5F3F4F37832683ED
S1134F2014C08B01EC01FB010084F185E02D09958F
S1134F30892BE1F6D80116968D919C9117970196CD
S1134F4017969C938E931697CE01DF91CF911F9164
S1134F500F910895FA01AA27283051F1203181F1E7
S1134F60E8946F936E7F6E5F7F4F8F4F9F4FAF4F6D
S1134F70B1E03ED0B4E03CD0670F781F891F9A1F80
S1134F80A11D680F791F8A1F911DA11D6A0F711D34
S1134F90811D911DA11D20D009F468943F912AE040
S1134FA0269F11243019305D3193DEF6CF01089528
S1134FB0462F4770405D4193B3E00FD0C9F7F6CF59
S1134FC0462F4F70405D4A3318F0495D31FD405221
S1134FD0419302D0A9F7EACFB4E0A69597958795B7
S1134FE077956795BA95C9F7009761057105089596
S1134FF09B01AC010A2E0694579547953795279542
S1135000BA95C9F7620F731F841F951FA01D0895D9
S11350102F923F924F925F926F927F928F929F92C4
S1135020AF92BF92CF92DF92EF92FF920F931F93B2
S1135030CF93DF93CDB7DEB7CA1BDB0B0FB6F89463
S1135040DEBF0FBECDBF09942A88398848885F84A3
S11350506E847D848C849B84AA84B984C884DF8014
S1135060EE80FD800C811B81AA81B981CE0FD11DF8
S11350700FB6F894DEBF0FBECDBFED010895F894CE
S1055080FFCF5C
S113508201010001000000020000000042160000BD
S11350920000C216E7162B172B172B172B172B17EB
S11350A22B1767236723D119D1197317F91A8B1791
S11350B29F17F91AFF05FFFF0105010000252E388D
S11350C2732E545244000044726976653A20256373
S11350D200000000000000000000000000000000CA
S11350E200000000000053656C656374204472691B
S11350F276653A003C2020202020202563202020B1
S1135102202020203E0053656C6563742046696C40
S1135112653A004572726F72206F70656E20646921
S1135122723A20003C002020202020202020202031
S11351322020200053617665203F003C202020205F
S113514243616E63656C202020203E002573202578
S1135152630053617665642021004E4F54207361CD
S11351627665642021003C2020202053617665204E
S113517220202020203E00808182828485868788A8
S1135182898A8B8C8D8E8F80919293949596979821
S1135192998A9B8C8D8E8FA0A2A2A3A4A5A6A7A850
S11351A2A9AAABACADAEAFB0B1B2B2A5B5B6B7A811
S11351B2B9AABBA3BDBDAFC0C1C2C3C4C5C6C7C81B
S11351C2C9CACBCCCDCECFD0D1D2D3D4D5D6D7D8D1
S11351D2D9DADBDCDDDEDFC0C1C2C3C4C5C6C7C8E1
S11351E2C9CACBCCCDCECFD0D1D2D3D4D5D6D7D8B1
S11351F2D9DADBDCDDDEDF4C6F7374206461746149
S113520220696E2077726974696E672074726163B3
S11352126B20506F733D25640A0052656164696EA8
S113522267206572726F723A200046525F44495396
S11352324B5F4552520046525F4E4F545F524541B6
S113524244590046525F4E4F5F46494C4500465210
S11352525F4E4F545F4F50454E45440046525F4E99
S11352624F545F454E41424C45440046525F4E4FB7
S11352725F46494C4553595354454D00577269741E
S1135282696E67206572726F723A20005772697490
S1135292696E67206572726F72206F6E2066696E26
S11352A26973683A20004572726F72206D6F756E71
S11352B2743A2000204E6F2053442D63617264209F
S11352C26F720020626164204641542046530045B7
S11352D272726F72206F70656E20494D414745535B
S11352E22E4346473A2000202043616E27742072E1
S11352F2656164002020494D414745532E4346478A
S1135302004449534B25692E545244004F70656E34
S11353122046696C65004572726F72206F70656E0B
S11353223A200070665F7265616400546F6F206C8E
S11353326F6E672066696C65206E616D65202573EA
S1135342004D6F756E742046696C6553797374658C
S11353526D2E2E2E2000456D70747920696D616763
S113536265206E616D65004572726F722077726995
S1135372746520636F6E6669673A20004572726FC6
S113538272206F6E2066696E697368207772697421
S11353926520636F6E6669673A2000534420436157
S10D53A27264005265736574000024
S9030000FC
